{
  "contractName": "Dex",
  "abi": [
    {
      "anonymous": false,
      "inputs": [
        {
          "indexed": true,
          "internalType": "address",
          "name": "previousOwner",
          "type": "address"
        },
        {
          "indexed": true,
          "internalType": "address",
          "name": "newOwner",
          "type": "address"
        }
      ],
      "name": "OwnershipTransferred",
      "type": "event"
    },
    {
      "anonymous": false,
      "inputs": [
        {
          "indexed": false,
          "internalType": "address",
          "name": "toAccount",
          "type": "address"
        },
        {
          "indexed": false,
          "internalType": "string",
          "name": "ticker",
          "type": "string"
        },
        {
          "indexed": false,
          "internalType": "uint256",
          "name": "amount",
          "type": "uint256"
        }
      ],
      "name": "deposit_successful",
      "type": "event"
    },
    {
      "inputs": [
        {
          "internalType": "string",
          "name": "ticker",
          "type": "string"
        },
        {
          "internalType": "address",
          "name": "tokenAddress",
          "type": "address"
        }
      ],
      "name": "addToken",
      "outputs": [],
      "stateMutability": "nonpayable",
      "type": "function"
    },
    {
      "inputs": [
        {
          "internalType": "address",
          "name": "",
          "type": "address"
        },
        {
          "internalType": "string",
          "name": "",
          "type": "string"
        }
      ],
      "name": "balances",
      "outputs": [
        {
          "internalType": "uint256",
          "name": "",
          "type": "uint256"
        }
      ],
      "stateMutability": "view",
      "type": "function",
      "constant": true
    },
    {
      "inputs": [
        {
          "internalType": "uint256",
          "name": "amount",
          "type": "uint256"
        },
        {
          "internalType": "string",
          "name": "ticker",
          "type": "string"
        }
      ],
      "name": "deposit",
      "outputs": [],
      "stateMutability": "nonpayable",
      "type": "function"
    },
    {
      "inputs": [
        {
          "internalType": "string",
          "name": "",
          "type": "string"
        },
        {
          "internalType": "uint256",
          "name": "",
          "type": "uint256"
        },
        {
          "internalType": "uint256",
          "name": "",
          "type": "uint256"
        }
      ],
      "name": "orderBook",
      "outputs": [
        {
          "internalType": "uint256",
          "name": "id",
          "type": "uint256"
        },
        {
          "internalType": "address",
          "name": "trader",
          "type": "address"
        },
        {
          "internalType": "enum Dex.Side",
          "name": "side",
          "type": "uint8"
        },
        {
          "internalType": "string",
          "name": "ticker",
          "type": "string"
        },
        {
          "internalType": "uint256",
          "name": "amount",
          "type": "uint256"
        },
        {
          "internalType": "uint256",
          "name": "price",
          "type": "uint256"
        },
        {
          "internalType": "uint256",
          "name": "amountSpokenFor",
          "type": "uint256"
        },
        {
          "internalType": "uint256",
          "name": "isMarketOrder",
          "type": "uint256"
        }
      ],
      "stateMutability": "view",
      "type": "function",
      "constant": true
    },
    {
      "inputs": [],
      "name": "orderIds",
      "outputs": [
        {
          "internalType": "uint256",
          "name": "",
          "type": "uint256"
        }
      ],
      "stateMutability": "view",
      "type": "function",
      "constant": true
    },
    {
      "inputs": [],
      "name": "owner",
      "outputs": [
        {
          "internalType": "address",
          "name": "",
          "type": "address"
        }
      ],
      "stateMutability": "view",
      "type": "function",
      "constant": true
    },
    {
      "inputs": [],
      "name": "renounceOwnership",
      "outputs": [],
      "stateMutability": "nonpayable",
      "type": "function"
    },
    {
      "inputs": [
        {
          "internalType": "uint256",
          "name": "",
          "type": "uint256"
        }
      ],
      "name": "tokenList",
      "outputs": [
        {
          "internalType": "string",
          "name": "",
          "type": "string"
        }
      ],
      "stateMutability": "view",
      "type": "function",
      "constant": true
    },
    {
      "inputs": [
        {
          "internalType": "string",
          "name": "",
          "type": "string"
        }
      ],
      "name": "tokenMapping",
      "outputs": [
        {
          "internalType": "string",
          "name": "ticker",
          "type": "string"
        },
        {
          "internalType": "address",
          "name": "tokenAddress",
          "type": "address"
        }
      ],
      "stateMutability": "view",
      "type": "function",
      "constant": true
    },
    {
      "inputs": [
        {
          "internalType": "address",
          "name": "newOwner",
          "type": "address"
        }
      ],
      "name": "transferOwnership",
      "outputs": [],
      "stateMutability": "nonpayable",
      "type": "function"
    },
    {
      "inputs": [
        {
          "internalType": "uint256",
          "name": "amount",
          "type": "uint256"
        },
        {
          "internalType": "string",
          "name": "ticker",
          "type": "string"
        }
      ],
      "name": "withdraw",
      "outputs": [],
      "stateMutability": "nonpayable",
      "type": "function"
    },
    {
      "stateMutability": "payable",
      "type": "receive",
      "payable": true
    },
    {
      "inputs": [],
      "name": "depositEth",
      "outputs": [],
      "stateMutability": "payable",
      "type": "function",
      "payable": true
    },
    {
      "inputs": [
        {
          "internalType": "string",
          "name": "_ticker",
          "type": "string"
        },
        {
          "internalType": "enum Dex.Side",
          "name": "side",
          "type": "uint8"
        }
      ],
      "name": "getOrderBook",
      "outputs": [
        {
          "components": [
            {
              "internalType": "uint256",
              "name": "id",
              "type": "uint256"
            },
            {
              "internalType": "address",
              "name": "trader",
              "type": "address"
            },
            {
              "internalType": "enum Dex.Side",
              "name": "side",
              "type": "uint8"
            },
            {
              "internalType": "string",
              "name": "ticker",
              "type": "string"
            },
            {
              "internalType": "uint256",
              "name": "amount",
              "type": "uint256"
            },
            {
              "internalType": "uint256",
              "name": "price",
              "type": "uint256"
            },
            {
              "internalType": "uint256",
              "name": "amountSpokenFor",
              "type": "uint256"
            },
            {
              "internalType": "uint256",
              "name": "isMarketOrder",
              "type": "uint256"
            }
          ],
          "internalType": "struct Dex.Order[]",
          "name": "",
          "type": "tuple[]"
        }
      ],
      "stateMutability": "view",
      "type": "function",
      "constant": true
    },
    {
      "inputs": [
        {
          "internalType": "enum Dex.Side",
          "name": "side",
          "type": "uint8"
        },
        {
          "internalType": "string",
          "name": "ticker",
          "type": "string"
        },
        {
          "internalType": "uint256",
          "name": "amount",
          "type": "uint256"
        },
        {
          "internalType": "uint256",
          "name": "price",
          "type": "uint256"
        }
      ],
      "name": "createLimitOrder",
      "outputs": [],
      "stateMutability": "nonpayable",
      "type": "function"
    },
    {
      "inputs": [
        {
          "internalType": "enum Dex.Side",
          "name": "side",
          "type": "uint8"
        },
        {
          "internalType": "string",
          "name": "ticker",
          "type": "string"
        },
        {
          "internalType": "uint256",
          "name": "amount",
          "type": "uint256"
        }
      ],
      "name": "createMarketOrder",
      "outputs": [],
      "stateMutability": "nonpayable",
      "type": "function"
    },
    {
      "inputs": [
        {
          "internalType": "address",
          "name": "accountAddy",
          "type": "address"
        },
        {
          "internalType": "string",
          "name": "ticker",
          "type": "string"
        }
      ],
      "name": "returnBalance",
      "outputs": [
        {
          "internalType": "uint256",
          "name": "",
          "type": "uint256"
        }
      ],
      "stateMutability": "view",
      "type": "function",
      "constant": true
    }
  ],
  "bytecode": "0x608060405260006004553480156200001657600080fd5b50600062000029620000cd60201b60201c565b9050806000806101000a81548173ffffffffffffffffffffffffffffffffffffffff021916908373ffffffffffffffffffffffffffffffffffffffff1602179055508073ffffffffffffffffffffffffffffffffffffffff16600073ffffffffffffffffffffffffffffffffffffffff167f8be0079c531659141344cd1fd0a4f28419497f9722a3daafe3b4186f6b6457e060405160405180910390a350620000d5565b600033905090565b61446080620000e56000396000f3fe6080604052600436106100f75760003560e01c8063715018a61161008a578063dc048cf211610059578063dc048cf214610335578063e88ad9531461035e578063f1215d251461039c578063f2fde38b146103c557610106565b8063715018a61461028d5780638da5cb5b146102a45780639ead7222146102cf578063b0b22c2c1461030c57610106565b8063439370b1116100c6578063439370b1146101de578063593ed5f3146101e85780635ffad5441461022557806362dd4b481461026257610106565b8063031554671461010b57806305d01f501461014f578063300c11c41461018c5780633963b02e146101b557610106565b36610106576101046103ee565b005b600080fd5b34801561011757600080fd5b50610132600480360381019061012d9190613501565b6104b9565b604051610146989796959493929190613c26565b60405180910390f35b34801561015b57600080fd5b5061017660048036038101906101719190613285565b6105f6565b6040516101839190613c0b565b60405180910390f35b34801561019857600080fd5b506101b360048036038101906101ae919061330e565b610631565b005b3480156101c157600080fd5b506101dc60048036038101906101d7919061337d565b61064d565b005b6101e66103ee565b005b3480156101f457600080fd5b5061020f600480360381019061020a91906134a5565b610663565b60405161021c9190613a57565b60405180910390f35b34801561023157600080fd5b5061024c60048036038101906102479190613285565b61085a565b6040516102599190613c0b565b60405180910390f35b34801561026e57600080fd5b506102776108c0565b6040516102849190613c0b565b60405180910390f35b34801561029957600080fd5b506102a26108c6565b005b3480156102b057600080fd5b506102b9610a00565b6040516102c691906139dc565b60405180910390f35b3480156102db57600080fd5b506102f660048036038101906102f19190613570565b610a29565b6040516103039190613a79565b60405180910390f35b34801561031857600080fd5b50610333600480360381019061032e9190613449565b610ad5565b005b34801561034157600080fd5b5061035c6004803603810190610357919061359d565b610c41565b005b34801561036a57600080fd5b5061038560048036038101906103809190613400565b610f32565b604051610393929190613a9b565b60405180910390f35b3480156103a857600080fd5b506103c360048036038101906103be919061359d565b611014565b005b3480156103d157600080fd5b506103ec60048036038101906103e79190613258565b611269565b005b61045a34600360003373ffffffffffffffffffffffffffffffffffffffff1673ffffffffffffffffffffffffffffffffffffffff16815260200190815260200160002060405161043d906139c7565b90815260200160405180910390205461141290919063ffffffff16565b600360003373ffffffffffffffffffffffffffffffffffffffff1673ffffffffffffffffffffffffffffffffffffffff1681526020019081526020016000206040516104a5906139c7565b908152602001604051809103902081905550565b60058380516020810182018051848252602083016020850120818352809550505050505060205281600052604060002081815481106104f757600080fd5b906000526020600020906007020160009250925050508060000154908060010160009054906101000a900473ffffffffffffffffffffffffffffffffffffffff16908060010160149054906101000a900460ff169080600201805461055b90613f2f565b80601f016020809104026020016040519081016040528092919081815260200182805461058790613f2f565b80156105d45780601f106105a9576101008083540402835291602001916105d4565b820191906000526020600020905b8154815290600101906020018083116105b757829003601f168201915b5050505050908060030154908060040154908060050154908060060154905088565b600360205281600052604060002081805160208101820180518482526020830160208501208183528095505050505050600091509150505481565b60006001905060006106468585858486611428565b5050505050565b600061065c8585858585611428565b5050505050565b606060058360405161067591906139b0565b908152602001604051809103902060008360018111156106985761069761400a565b5b8152602001908152602001600020805480602002602001604051908101604052809291908181526020016000905b8282101561084e578382906000526020600020906007020160405180610100016040529081600082015481526020016001820160009054906101000a900473ffffffffffffffffffffffffffffffffffffffff1673ffffffffffffffffffffffffffffffffffffffff1673ffffffffffffffffffffffffffffffffffffffff1681526020016001820160149054906101000a900460ff16600181111561076f5761076e61400a565b5b60018111156107815761078061400a565b5b815260200160028201805461079590613f2f565b80601f01602080910402602001604051908101604052809291908181526020018280546107c190613f2f565b801561080e5780601f106107e35761010080835404028352916020019161080e565b820191906000526020600020905b8154815290600101906020018083116107f157829003601f168201915b50505050508152602001600382015481526020016004820154815260200160058201548152602001600682015481525050815260200190600101906106c6565b50505050905092915050565b6000600360008473ffffffffffffffffffffffffffffffffffffffff1673ffffffffffffffffffffffffffffffffffffffff168152602001908152602001600020826040516108a991906139b0565b908152602001604051809103902054905092915050565b60045481565b6108ce611680565b73ffffffffffffffffffffffffffffffffffffffff166108ec610a00565b73ffffffffffffffffffffffffffffffffffffffff1614610942576040517f08c379a000000000000000000000000000000000000000000000000000000000815260040161093990613b8b565b60405180910390fd5b600073ffffffffffffffffffffffffffffffffffffffff1660008054906101000a900473ffffffffffffffffffffffffffffffffffffffff1673ffffffffffffffffffffffffffffffffffffffff167f8be0079c531659141344cd1fd0a4f28419497f9722a3daafe3b4186f6b6457e060405160405180910390a360008060006101000a81548173ffffffffffffffffffffffffffffffffffffffff021916908373ffffffffffffffffffffffffffffffffffffffff160217905550565b60008060009054906101000a900473ffffffffffffffffffffffffffffffffffffffff16905090565b60028181548110610a3957600080fd5b906000526020600020016000915090508054610a5490613f2f565b80601f0160208091040260200160405190810160405280929190818152602001828054610a8090613f2f565b8015610acd5780601f10610aa257610100808354040283529160200191610acd565b820191906000526020600020905b815481529060010190602001808311610ab057829003601f168201915b505050505081565b610add611680565b73ffffffffffffffffffffffffffffffffffffffff16610afb610a00565b73ffffffffffffffffffffffffffffffffffffffff1614610b51576040517f08c379a0000000000000000000000000000000000000000000000000000000008152600401610b4890613b8b565b60405180910390fd5b60405180604001604052808381526020018273ffffffffffffffffffffffffffffffffffffffff16815250600183604051610b8c91906139b0565b90815260200160405180910390206000820151816000019080519060200190610bb6929190613024565b5060208201518160010160006101000a81548173ffffffffffffffffffffffffffffffffffffffff021916908373ffffffffffffffffffffffffffffffffffffffff160217905550905050600282908060018154018082558091505060019003906000526020600020016000909190919091509080519060200190610c3c929190613024565b505050565b80600073ffffffffffffffffffffffffffffffffffffffff16600182604051610c6a91906139b0565b908152602001604051809103902060010160009054906101000a900473ffffffffffffffffffffffffffffffffffffffff1673ffffffffffffffffffffffffffffffffffffffff161415610cf3576040517f08c379a0000000000000000000000000000000000000000000000000000000008152600401610cea90613beb565b60405180910390fd5b82600360003373ffffffffffffffffffffffffffffffffffffffff1673ffffffffffffffffffffffffffffffffffffffff16815260200190815260200160002083604051610d4191906139b0565b9081526020016040518091039020541015610d91576040517f08c379a0000000000000000000000000000000000000000000000000000000008152600401610d8890613acb565b60405180910390fd5b610dff83600360003373ffffffffffffffffffffffffffffffffffffffff1673ffffffffffffffffffffffffffffffffffffffff16815260200190815260200160002084604051610de291906139b0565b90815260200160405180910390205461168890919063ffffffff16565b600360003373ffffffffffffffffffffffffffffffffffffffff1673ffffffffffffffffffffffffffffffffffffffff16815260200190815260200160002083604051610e4c91906139b0565b908152602001604051809103902081905550600182604051610e6e91906139b0565b908152602001604051809103902060010160009054906101000a900473ffffffffffffffffffffffffffffffffffffffff1673ffffffffffffffffffffffffffffffffffffffff1663a9059cbb33856040518363ffffffff1660e01b8152600401610eda929190613a2e565b602060405180830381600087803b158015610ef457600080fd5b505af1158015610f08573d6000803e3d6000fd5b505050506040513d601f19601f82011682018060405250810190610f2c91906132e1565b50505050565b600181805160208101820180518482526020830160208501208183528095505050505050600091509050806000018054610f6b90613f2f565b80601f0160208091040260200160405190810160405280929190818152602001828054610f9790613f2f565b8015610fe45780601f10610fb957610100808354040283529160200191610fe4565b820191906000526020600020905b815481529060010190602001808311610fc757829003601f168201915b5050505050908060010160009054906101000a900473ffffffffffffffffffffffffffffffffffffffff16905082565b80600073ffffffffffffffffffffffffffffffffffffffff1660018260405161103d91906139b0565b908152602001604051809103902060010160009054906101000a900473ffffffffffffffffffffffffffffffffffffffff1673ffffffffffffffffffffffffffffffffffffffff1614156110c6576040517f08c379a00000000000000000000000000000000000000000000000000000000081526004016110bd90613beb565b60405180910390fd5b6001826040516110d691906139b0565b908152602001604051809103902060010160009054906101000a900473ffffffffffffffffffffffffffffffffffffffff1673ffffffffffffffffffffffffffffffffffffffff166323b872dd3330866040518463ffffffff1660e01b8152600401611144939291906139f7565b602060405180830381600087803b15801561115e57600080fd5b505af1158015611172573d6000803e3d6000fd5b505050506040513d601f19601f8201168201806040525081019061119691906132e1565b5061120583600360003373ffffffffffffffffffffffffffffffffffffffff1673ffffffffffffffffffffffffffffffffffffffff168152602001908152602001600020846040516111e891906139b0565b90815260200160405180910390205461141290919063ffffffff16565b600360003373ffffffffffffffffffffffffffffffffffffffff1673ffffffffffffffffffffffffffffffffffffffff1681526020019081526020016000208360405161125291906139b0565b908152602001604051809103902081905550505050565b611271611680565b73ffffffffffffffffffffffffffffffffffffffff1661128f610a00565b73ffffffffffffffffffffffffffffffffffffffff16146112e5576040517f08c379a00000000000000000000000000000000000000000000000000000000081526004016112dc90613b8b565b60405180910390fd5b600073ffffffffffffffffffffffffffffffffffffffff168173ffffffffffffffffffffffffffffffffffffffff161415611355576040517f08c379a000000000000000000000000000000000000000000000000000000000815260040161134c90613b0b565b60405180910390fd5b8073ffffffffffffffffffffffffffffffffffffffff1660008054906101000a900473ffffffffffffffffffffffffffffffffffffffff1673ffffffffffffffffffffffffffffffffffffffff167f8be0079c531659141344cd1fd0a4f28419497f9722a3daafe3b4186f6b6457e060405160405180910390a3806000806101000a81548173ffffffffffffffffffffffffffffffffffffffff021916908373ffffffffffffffffffffffffffffffffffffffff16021790555050565b600081836114209190613d72565b905092915050565b600060405180610100016040528060045481526020013373ffffffffffffffffffffffffffffffffffffffff16815260200187600181111561146d5761146c61400a565b5b815260200186815260200185815260200184815260200160008152602001838152509050600060018111156114a5576114a461400a565b5b8660018111156114b8576114b761400a565b5b141561164f576114c78161169e565b611506576040517f08c379a00000000000000000000000000000000000000000000000000000000081526004016114fd90613b2b565b60405180910390fd5b600060058660405161151891906139b0565b9081526020016040518091039020600088600181111561153b5761153a61400a565b5b81526020019081526020016000209050808290806001815401808255809150506001900390600052602060002090600702016000909190919091506000820151816000015560208201518160010160006101000a81548173ffffffffffffffffffffffffffffffffffffffff021916908373ffffffffffffffffffffffffffffffffffffffff16021790555060408201518160010160146101000a81548160ff021916908360018111156115f2576115f161400a565b5b02179055506060820151816002019080519060200190611613929190613024565b506080820151816003015560a0820151816004015560c0820151816005015560e0820151816006015550506116488688611abc565b5050611678565b6001808111156116625761166161400a565b5b8660018111156116755761167461400a565b5b50505b505050505050565b600033905090565b600081836116969190613e22565b905092915050565b6000808260e001511415611768578160a0015182608001516116c09190613dc8565b60036000846020015173ffffffffffffffffffffffffffffffffffffffff1673ffffffffffffffffffffffffffffffffffffffff16815260200190815260200160002060405161170f906139c7565b908152602001604051809103902054101561175f576040517f08c379a000000000000000000000000000000000000000000000000000000000815260040161175690613b4b565b60405180910390fd5b60019050611ab7565b60006005836060015160405161177e91906139b0565b908152602001604051809103902060006001815260200190815260200160002090506000600360003373ffffffffffffffffffffffffffffffffffffffff1673ffffffffffffffffffffffffffffffffffffffff1681526020019081526020016000206040516117ed906139c7565b908152602001604051809103902054905060008460800151905060008360008154811061181d5761181c614097565b5b90600052602060002090600702016003015490506000818560008154811061184857611847614097565b5b9060005260206000209060070201600401546118649190613dc8565b90506000600190505b83831015611ab25785805490508114156118bc576040517f08c379a00000000000000000000000000000000000000000000000000000000081526004016118b390613aeb565b60405180910390fd5b8581815481106118cf576118ce614097565b5b906000526020600020906007020160030154836118ec9190613d72565b925085818154811061190157611900614097565b5b90600052602060002090600702016003015486828154811061192657611925614097565b5b90600052602060002090600702016005018190555061199686828154811061195157611950614097565b5b90600052602060002090600702016004015487838154811061197657611975614097565b5b9060005260206000209060070201600301546124f690919063ffffffff16565b826119a19190613d72565b9150838682815481106119b7576119b6614097565b5b906000526020600020906007020160030154846119d49190613d72565b10611a9f57600083856119e79190613e22565b9050808783815481106119fd576119fc614097565b5b906000526020600020906007020160050181905550868281548110611a2557611a24614097565b5b90600052602060002090600702016004015481611a429190613dc8565b83611a4d9190613d72565b861015611a8f576040517f08c379a0000000000000000000000000000000000000000000000000000000008152600401611a8690613b6b565b60405180910390fd5b6001975050505050505050611ab7565b8080611aaa90613f92565b91505061186d565b600080fd5b919050565b600080600584604051611acf91906139b0565b90815260200160405180910390206000846001811115611af257611af161400a565b5b81526020019081526020016000209050600080828054905011611b16576000611b28565b60018280549050611b279190613e22565b5b905060006001811115611b3e57611b3d61400a565b5b846001811115611b5157611b5061400a565b5b141561207a576000828281548110611b6c57611b6b614097565b5b9060005260206000209060070201600601541415611c3657600082805490509050611b97868261250c565b82805480611ba857611ba7614068565b5b60019003818190600052602060002090600702016000808201600090556001820160006101000a81549073ffffffffffffffffffffffffffffffffffffffff02191690556001820160146101000a81549060ff0219169055600282016000611c1091906130aa565b600382016000905560048201600090556005820160009055600682016000905550509055505b5b600081111561207957818181548110611c5357611c52614097565b5b90600052602060002090600702016004015482600183611c739190613e22565b81548110611c8457611c83614097565b5b9060005260206000209060070201600401541115611ca157612079565b600082600183611cb19190613e22565b81548110611cc257611cc1614097565b5b906000526020600020906007020160405180610100016040529081600082015481526020016001820160009054906101000a900473ffffffffffffffffffffffffffffffffffffffff1673ffffffffffffffffffffffffffffffffffffffff1673ffffffffffffffffffffffffffffffffffffffff1681526020016001820160149054906101000a900460ff166001811115611d6157611d6061400a565b5b6001811115611d7357611d7261400a565b5b8152602001600282018054611d8790613f2f565b80601f0160208091040260200160405190810160405280929190818152602001828054611db390613f2f565b8015611e005780601f10611dd557610100808354040283529160200191611e00565b820191906000526020600020905b815481529060010190602001808311611de357829003601f168201915b505050505081526020016003820154815260200160048201548152602001600582015481526020016006820154815250509050828281548110611e4657611e45614097565b5b906000526020600020906007020183600184611e629190613e22565b81548110611e7357611e72614097565b5b9060005260206000209060070201600082015481600001556001820160009054906101000a900473ffffffffffffffffffffffffffffffffffffffff168160010160006101000a81548173ffffffffffffffffffffffffffffffffffffffff021916908373ffffffffffffffffffffffffffffffffffffffff1602179055506001820160149054906101000a900460ff168160010160146101000a81548160ff02191690836001811115611f2a57611f2961400a565b5b02179055506002820181600201908054611f4390613f2f565b611f4e9291906130ea565b506003820154816003015560048201548160040155600582015481600501556006820154816006015590505080838381548110611f8e57611f8d614097565b5b90600052602060002090600702016000820151816000015560208201518160010160006101000a81548173ffffffffffffffffffffffffffffffffffffffff021916908373ffffffffffffffffffffffffffffffffffffffff16021790555060408201518160010160146101000a81548160ff021916908360018111156120185761201761400a565b5b02179055506060820151816002019080519060200190612039929190613024565b506080820151816003015560a0820151816004015560c0820151816005015560e08201518160060155905050818061207090613f05565b92505050611c37565b5b60018081111561208d5761208c61400a565b5b8460018111156120a05761209f61400a565b5b14156124ea575b60008111156124e9578181815481106120c3576120c2614097565b5b906000526020600020906007020160040154826001836120e39190613e22565b815481106120f4576120f3614097565b5b9060005260206000209060070201600401541015612111576124e9565b6000826001836121219190613e22565b8154811061213257612131614097565b5b906000526020600020906007020160405180610100016040529081600082015481526020016001820160009054906101000a900473ffffffffffffffffffffffffffffffffffffffff1673ffffffffffffffffffffffffffffffffffffffff1673ffffffffffffffffffffffffffffffffffffffff1681526020016001820160149054906101000a900460ff1660018111156121d1576121d061400a565b5b60018111156121e3576121e261400a565b5b81526020016002820180546121f790613f2f565b80601f016020809104026020016040519081016040528092919081815260200182805461222390613f2f565b80156122705780601f1061224557610100808354040283529160200191612270565b820191906000526020600020905b81548152906001019060200180831161225357829003601f168201915b5050505050815260200160038201548152602001600482015481526020016005820154815260200160068201548152505090508282815481106122b6576122b5614097565b5b9060005260206000209060070201836001846122d29190613e22565b815481106122e3576122e2614097565b5b9060005260206000209060070201600082015481600001556001820160009054906101000a900473ffffffffffffffffffffffffffffffffffffffff168160010160006101000a81548173ffffffffffffffffffffffffffffffffffffffff021916908373ffffffffffffffffffffffffffffffffffffffff1602179055506001820160149054906101000a900460ff168160010160146101000a81548160ff0219169083600181111561239a5761239961400a565b5b021790555060028201816002019080546123b390613f2f565b6123be9291906130ea565b5060038201548160030155600482015481600401556005820154816005015560068201548160060155905050808383815481106123fe576123fd614097565b5b90600052602060002090600702016000820151816000015560208201518160010160006101000a81548173ffffffffffffffffffffffffffffffffffffffff021916908373ffffffffffffffffffffffffffffffffffffffff16021790555060408201518160010160146101000a81548160ff021916908360018111156124885761248761400a565b5b021790555060608201518160020190805190602001906124a9929190613024565b506080820151816003015560a0820151816004015560c0820151816005015560e0820151816006015590505081806124e090613f05565b925050506120a7565b5b60019250505092915050565b600081836125049190613dc8565b905092915050565b600060058360405161251e91906139b0565b90815260200160405180910390206000600181526020019081526020016000209050600061254d846000610663565b60018461255a9190613e22565b8151811061256b5761256a614097565b5b6020026020010151905060008160800151905060008060009050600060058860405161259791906139b0565b90815260200160405180910390206000600181526020019081526020016000206000815481106125ca576125c9614097565b5b906000526020600020906007020160405180610100016040529081600082015481526020016001820160009054906101000a900473ffffffffffffffffffffffffffffffffffffffff1673ffffffffffffffffffffffffffffffffffffffff1673ffffffffffffffffffffffffffffffffffffffff1681526020016001820160149054906101000a900460ff1660018111156126695761266861400a565b5b600181111561267b5761267a61400a565b5b815260200160028201805461268f90613f2f565b80601f01602080910402602001604051908101604052809291908181526020018280546126bb90613f2f565b80156127085780601f106126dd57610100808354040283529160200191612708565b820191906000526020600020905b8154815290600101906020018083116126eb57829003601f168201915b5050505050815260200160038201548152602001600482015481526020016005820154815260200160068201548152505090505b60008411156127d8578060c001518160800151141561278857600092508060c00151915061276b8186856127e2565b61277481612cdd565b5081846127819190613e22565b93506127d3565b8060c00151925061279a8186856127e2565b6127b183826080015161168890919063ffffffff16565b8160800181815250506127c385612cdd565b5082846127d09190613e22565b93505b61273c565b5050505050505050565b600080821415612805578360a0015184608001516128009190613dc8565b612816565b8360a00151826128159190613dc8565b5b905060008083141561282c57846080015161282e565b825b9050846080015160036000876020015173ffffffffffffffffffffffffffffffffffffffff1673ffffffffffffffffffffffffffffffffffffffff168152602001908152602001600020866060015160405161288a91906139b0565b90815260200160405180910390205410156128da576040517f08c379a00000000000000000000000000000000000000000000000000000000081526004016128d190613bcb565b60405180910390fd5b8160036000866020015173ffffffffffffffffffffffffffffffffffffffff1673ffffffffffffffffffffffffffffffffffffffff16815260200190815260200160002060405161292a906139c7565b908152602001604051809103902054101561297a576040517f08c379a000000000000000000000000000000000000000000000000000000000815260040161297190613bab565b60405180910390fd5b6129f08160036000886020015173ffffffffffffffffffffffffffffffffffffffff1673ffffffffffffffffffffffffffffffffffffffff16815260200190815260200160002087606001516040516129d391906139b0565b90815260200160405180910390205461168890919063ffffffff16565b60036000876020015173ffffffffffffffffffffffffffffffffffffffff1673ffffffffffffffffffffffffffffffffffffffff1681526020019081526020016000208660600151604051612a4591906139b0565b908152602001604051809103902081905550612acd8160036000876020015173ffffffffffffffffffffffffffffffffffffffff1673ffffffffffffffffffffffffffffffffffffffff1681526020019081526020016000208660600151604051612ab091906139b0565b90815260200160405180910390205461141290919063ffffffff16565b60036000866020015173ffffffffffffffffffffffffffffffffffffffff1673ffffffffffffffffffffffffffffffffffffffff1681526020019081526020016000208560600151604051612b2291906139b0565b908152602001604051809103902081905550612ba48260036000886020015173ffffffffffffffffffffffffffffffffffffffff1673ffffffffffffffffffffffffffffffffffffffff168152602001908152602001600020604051612b87906139c7565b90815260200160405180910390205461141290919063ffffffff16565b60036000876020015173ffffffffffffffffffffffffffffffffffffffff1673ffffffffffffffffffffffffffffffffffffffff168152602001908152602001600020604051612bf3906139c7565b908152602001604051809103902081905550612c758260036000876020015173ffffffffffffffffffffffffffffffffffffffff1673ffffffffffffffffffffffffffffffffffffffff168152602001908152602001600020604051612c58906139c7565b90815260200160405180910390205461168890919063ffffffff16565b60036000866020015173ffffffffffffffffffffffffffffffffffffffff1673ffffffffffffffffffffffffffffffffffffffff168152602001908152602001600020604051612cc4906139c7565b9081526020016040518091039020819055505050505050565b60008060058360600151604051612cf491906139b0565b9081526020016040518091039020600084604001516001811115612d1b57612d1a61400a565b5b815260200190815260200160002090508060018280549050612d3d9190613e22565b81548110612d4e57612d4d614097565b5b90600052602060002090600702016000015483600001511415612e125780805480612d7c57612d7b614068565b5b60019003818190600052602060002090600702016000808201600090556001820160006101000a81549073ffffffffffffffffffffffffffffffffffffffff02191690556001820160146101000a81549060ff0219169055600282016000612de491906130aa565b600382016000905560048201600090556005820160009055600682016000905550509055600191505061301f565b60005b8180549050811015612f7b5781600182612e2f9190613d72565b81548110612e4057612e3f614097565b5b9060005260206000209060070201828281548110612e6157612e60614097565b5b9060005260206000209060070201600082015481600001556001820160009054906101000a900473ffffffffffffffffffffffffffffffffffffffff168160010160006101000a81548173ffffffffffffffffffffffffffffffffffffffff021916908373ffffffffffffffffffffffffffffffffffffffff1602179055506001820160149054906101000a900460ff168160010160146101000a81548160ff02191690836001811115612f1857612f1761400a565b5b02179055506002820181600201908054612f3190613f2f565b612f3c9291906130ea565b50600382015481600301556004820154816004015560058201548160050155600682015481600601559050508080612f7390613f92565b915050612e15565b5080805480612f8d57612f8c614068565b5b60019003818190600052602060002090600702016000808201600090556001820160006101000a81549073ffffffffffffffffffffffffffffffffffffffff02191690556001820160146101000a81549060ff0219169055600282016000612ff591906130aa565b60038201600090556004820160009055600582016000905560068201600090555050905560019150505b919050565b82805461303090613f2f565b90600052602060002090601f0160209004810192826130525760008555613099565b82601f1061306b57805160ff1916838001178555613099565b82800160010185558215613099579182015b8281111561309857825182559160200191906001019061307d565b5b5090506130a69190613177565b5090565b5080546130b690613f2f565b6000825580601f106130c857506130e7565b601f0160209004906000526020600020908101906130e69190613177565b5b50565b8280546130f690613f2f565b90600052602060002090601f0160209004810192826131185760008555613166565b82601f106131295780548555613166565b8280016001018555821561316657600052602060002091601f016020900482015b8281111561316557825482559160010191906001019061314a565b5b5090506131739190613177565b5090565b5b80821115613190576000816000905550600101613178565b5090565b60006131a76131a284613cd0565b613cab565b9050828152602081018484840111156131c3576131c26140fa565b5b6131ce848285613ec3565b509392505050565b6000813590506131e5816143d5565b92915050565b6000815190506131fa816143ec565b92915050565b60008135905061320f81614403565b92915050565b600082601f83011261322a576132296140f5565b5b813561323a848260208601613194565b91505092915050565b60008135905061325281614413565b92915050565b60006020828403121561326e5761326d614104565b5b600061327c848285016131d6565b91505092915050565b6000806040838503121561329c5761329b614104565b5b60006132aa858286016131d6565b925050602083013567ffffffffffffffff8111156132cb576132ca6140ff565b5b6132d785828601613215565b9150509250929050565b6000602082840312156132f7576132f6614104565b5b6000613305848285016131eb565b91505092915050565b60008060006060848603121561332757613326614104565b5b600061333586828701613200565b935050602084013567ffffffffffffffff811115613356576133556140ff565b5b61336286828701613215565b925050604061337386828701613243565b9150509250925092565b6000806000806080858703121561339757613396614104565b5b60006133a587828801613200565b945050602085013567ffffffffffffffff8111156133c6576133c56140ff565b5b6133d287828801613215565b93505060406133e387828801613243565b92505060606133f487828801613243565b91505092959194509250565b60006020828403121561341657613415614104565b5b600082013567ffffffffffffffff811115613434576134336140ff565b5b61344084828501613215565b91505092915050565b600080604083850312156134605761345f614104565b5b600083013567ffffffffffffffff81111561347e5761347d6140ff565b5b61348a85828601613215565b925050602061349b858286016131d6565b9150509250929050565b600080604083850312156134bc576134bb614104565b5b600083013567ffffffffffffffff8111156134da576134d96140ff565b5b6134e685828601613215565b92505060206134f785828601613200565b9150509250929050565b60008060006060848603121561351a57613519614104565b5b600084013567ffffffffffffffff811115613538576135376140ff565b5b61354486828701613215565b935050602061355586828701613243565b925050604061356686828701613243565b9150509250925092565b60006020828403121561358657613585614104565b5b600061359484828501613243565b91505092915050565b600080604083850312156135b4576135b3614104565b5b60006135c285828601613243565b925050602083013567ffffffffffffffff8111156135e3576135e26140ff565b5b6135ef85828601613215565b9150509250929050565b600061360583836138e2565b905092915050565b61361681613e56565b82525050565b61362581613e56565b82525050565b600061363682613d11565b6136408185613d34565b93508360208202850161365285613d01565b8060005b8581101561368e578484038952815161366f85826135f9565b945061367a83613d27565b925060208a01995050600181019050613656565b50829750879550505050505092915050565b6136a981613eb1565b82525050565b6136b881613eb1565b82525050565b60006136c982613d1c565b6136d38185613d45565b93506136e3818560208601613ed2565b6136ec81614109565b840191505092915050565b600061370282613d1c565b61370c8185613d56565b935061371c818560208601613ed2565b61372581614109565b840191505092915050565b600061373b82613d1c565b6137458185613d67565b9350613755818560208601613ed2565b80840191505092915050565b600061376e601683613d56565b91506137798261411a565b602082019050919050565b6000613791602683613d56565b915061379c82614143565b604082019050919050565b60006137b4602683613d56565b91506137bf82614192565b604082019050919050565b60006137d7602283613d56565b91506137e2826141e1565b604082019050919050565b60006137fa603283613d56565b915061380582614230565b604082019050919050565b600061381d601983613d56565b91506138288261427f565b602082019050919050565b6000613840602083613d56565b915061384b826142a8565b602082019050919050565b6000613863602883613d56565b915061386e826142d1565b604082019050919050565b6000613886602e83613d56565b915061389182614320565b604082019050919050565b60006138a9600383613d67565b91506138b48261436f565b600382019050919050565b60006138cc601483613d56565b91506138d782614398565b602082019050919050565b6000610100830160008301516138fb6000860182613992565b50602083015161390e602086018261360d565b50604083015161392160408601826136a0565b506060830151848203606086015261393982826136be565b915050608083015161394e6080860182613992565b5060a083015161396160a0860182613992565b5060c083015161397460c0860182613992565b5060e083015161398760e0860182613992565b508091505092915050565b61399b81613ea7565b82525050565b6139aa81613ea7565b82525050565b60006139bc8284613730565b915081905092915050565b60006139d28261389c565b9150819050919050565b60006020820190506139f1600083018461361c565b92915050565b6000606082019050613a0c600083018661361c565b613a19602083018561361c565b613a2660408301846139a1565b949350505050565b6000604082019050613a43600083018561361c565b613a5060208301846139a1565b9392505050565b60006020820190508181036000830152613a71818461362b565b905092915050565b60006020820190508181036000830152613a9381846136f7565b905092915050565b60006040820190508181036000830152613ab581856136f7565b9050613ac4602083018461361c565b9392505050565b60006020820190508181036000830152613ae481613761565b9050919050565b60006020820190508181036000830152613b0481613784565b9050919050565b60006020820190508181036000830152613b24816137a7565b9050919050565b60006020820190508181036000830152613b44816137ca565b9050919050565b60006020820190508181036000830152613b64816137ed565b9050919050565b60006020820190508181036000830152613b8481613810565b9050919050565b60006020820190508181036000830152613ba481613833565b9050919050565b60006020820190508181036000830152613bc481613856565b9050919050565b60006020820190508181036000830152613be481613879565b9050919050565b60006020820190508181036000830152613c04816138bf565b9050919050565b6000602082019050613c2060008301846139a1565b92915050565b600061010082019050613c3c600083018b6139a1565b613c49602083018a61361c565b613c5660408301896136af565b8181036060830152613c6881886136f7565b9050613c7760808301876139a1565b613c8460a08301866139a1565b613c9160c08301856139a1565b613c9e60e08301846139a1565b9998505050505050505050565b6000613cb5613cc6565b9050613cc18282613f61565b919050565b6000604051905090565b600067ffffffffffffffff821115613ceb57613cea6140c6565b5b613cf482614109565b9050602081019050919050565b6000819050602082019050919050565b600081519050919050565b600081519050919050565b6000602082019050919050565b600082825260208201905092915050565b600082825260208201905092915050565b600082825260208201905092915050565b600081905092915050565b6000613d7d82613ea7565b9150613d8883613ea7565b9250827fffffffffffffffffffffffffffffffffffffffffffffffffffffffffffffffff03821115613dbd57613dbc613fdb565b5b828201905092915050565b6000613dd382613ea7565b9150613dde83613ea7565b9250817fffffffffffffffffffffffffffffffffffffffffffffffffffffffffffffffff0483118215151615613e1757613e16613fdb565b5b828202905092915050565b6000613e2d82613ea7565b9150613e3883613ea7565b925082821015613e4b57613e4a613fdb565b5b828203905092915050565b6000613e6182613e87565b9050919050565b60008115159050919050565b6000819050613e82826143c1565b919050565b600073ffffffffffffffffffffffffffffffffffffffff82169050919050565b6000819050919050565b6000613ebc82613e74565b9050919050565b82818337600083830152505050565b60005b83811015613ef0578082015181840152602081019050613ed5565b83811115613eff576000848401525b50505050565b6000613f1082613ea7565b91506000821415613f2457613f23613fdb565b5b600182039050919050565b60006002820490506001821680613f4757607f821691505b60208210811415613f5b57613f5a614039565b5b50919050565b613f6a82614109565b810181811067ffffffffffffffff82111715613f8957613f886140c6565b5b80604052505050565b6000613f9d82613ea7565b91507fffffffffffffffffffffffffffffffffffffffffffffffffffffffffffffffff821415613fd057613fcf613fdb565b5b600182019050919050565b7f4e487b7100000000000000000000000000000000000000000000000000000000600052601160045260246000fd5b7f4e487b7100000000000000000000000000000000000000000000000000000000600052602160045260246000fd5b7f4e487b7100000000000000000000000000000000000000000000000000000000600052602260045260246000fd5b7f4e487b7100000000000000000000000000000000000000000000000000000000600052603160045260246000fd5b7f4e487b7100000000000000000000000000000000000000000000000000000000600052603260045260246000fd5b7f4e487b7100000000000000000000000000000000000000000000000000000000600052604160045260246000fd5b600080fd5b600080fd5b600080fd5b600080fd5b6000601f19601f8301169050919050565b7f62616c616e6365206e6f742073756666696369656e7400000000000000000000600082015250565b7f4e6f7420656e6f756768206c697175696469747920746f20636f6d706c65746560008201527f2074726164650000000000000000000000000000000000000000000000000000602082015250565b7f4f776e61626c653a206e6577206f776e657220697320746865207a65726f206160008201527f6464726573730000000000000000000000000000000000000000000000000000602082015250565b7f636865636b46696c6c6162696c6974792066756e6374696f6e2072657665727460008201527f6564000000000000000000000000000000000000000000000000000000000000602082015250565b7f596f7520646f6e2774206861766520656e6f7567682045544820746f2076616c60008201527f6964617465207468697320726571756573740000000000000000000000000000602082015250565b7f596f7520646f6e2774206861766520656e6f7567682045544800000000000000600082015250565b7f4f776e61626c653a2063616c6c6572206973206e6f7420746865206f776e6572600082015250565b7f796f7520646f6e2774206861766520656e6f7567682045544820666f7220746860008201527f6973207472616465000000000000000000000000000000000000000000000000602082015250565b7f596f7520646f6e27742068617665207468652066756e647320746f206d616b6560008201527f2074686973207472616e73666572000000000000000000000000000000000000602082015250565b7f4554480000000000000000000000000000000000000000000000000000000000600082015250565b7f746f6b656e20646f6573206e6f74206578697374000000000000000000000000600082015250565b600281106143d2576143d161400a565b5b50565b6143de81613e56565b81146143e957600080fd5b50565b6143f581613e68565b811461440057600080fd5b50565b6002811061441057600080fd5b50565b61441c81613ea7565b811461442757600080fd5b5056fea26469706673582212206a5001ef554b54eccc6b0fa4f35074bb969657e5b853b9f529ab7bb576b77b4064736f6c63430008050033",
  "immutableReferences": {},
  "source": "pragma solidity ^0.8.0;\r\npragma experimental ABIEncoderV2;\r\n\r\nimport \"./wallet.sol\";\r\n\r\n\r\ncontract Dex is Wallet{\r\n    //needs mechanism to track balances of trader's pending trades\r\n    using SafeMath for uint256;\r\n\r\n    enum Side{\r\n    BUY,\r\n    SELL\r\n    }\r\n    \r\n    struct Order{\r\n        uint id;\r\n        address trader;\r\n        Side side;\r\n        string ticker;\r\n        uint amount;\r\n        uint price;\r\n        uint amountSpokenFor;\r\n        uint isMarketOrder;\r\n    }\r\n        \r\n    uint public orderIds = 0;\r\n\r\n    mapping(string => mapping(uint => Order[])) public orderBook;\r\n    \r\n    receive ()external payable{\r\n        depositEth();\r\n    }\r\n    function depositEth() public payable{\r\n        balances[msg.sender][\"ETH\"] = balances[msg.sender][\"ETH\"].add(msg.value);\r\n    }\r\n    function getOrderBook(string memory _ticker, Side side) public view returns(Order[] memory){\r\n        return orderBook[_ticker][uint(side)];\r\n    }\r\n    function incrimentOrderIds() internal{\r\n        orderIds ++;\r\n    }\r\n    function createLimitOrder(Side side, string memory ticker, uint amount, uint price) public{\r\n        uint isMarketOrder = 0;\r\n        _createOrder(side, ticker, amount, price, isMarketOrder);\r\n    }\r\n    function createMarketOrder(Side side, string memory ticker, uint amount) public{\r\n        uint isMarketOrder = 1;\r\n        uint dummyPrice = 0;\r\n        _createOrder(side, ticker, amount, dummyPrice, isMarketOrder);\r\n    }\r\n    function _createOrder(Side side, string memory ticker, uint amount, uint price, uint isMarketOrder) private{\r\n        Order memory newOrder = Order(orderIds, msg.sender, side, ticker, amount, price, 0, isMarketOrder);\r\n        if(side == Side.BUY){\r\n            require(checkOrderFillabilityAndEarmark(newOrder),\"checkFillability function reverted\");//unfillable MARKET orders will NOT be pushed to array\r\n            Order[] storage orders = orderBook[ticker][uint(side)];\r\n            orders.push(newOrder);\r\n            sortAndExecute(ticker, side);//and fill orders while...\r\n        }\r\n        else if(side == Side.SELL){\r\n\r\n        }\r\n    }\r\n    function checkOrderFillabilityAndEarmark(Order memory newOrder) internal returns(bool){//differences in the behavior of limit orders vice market orders are managed largely within this function\r\n        //check that limit orders have enough eth to back up token amount times token price\r\n        if(newOrder.isMarketOrder == 0){\r\n            require(balances[newOrder.trader][\"ETH\"] >= newOrder.amount * newOrder.price, \"You don't have enough ETH to validate this request\");\r\n            return true;\r\n        } \r\n        Order[] storage sellOrders = orderBook[newOrder.ticker][1];\r\n        uint tradersEthBalance = balances[msg.sender][\"ETH\"];\r\n        uint amountNeedingFilled = newOrder.amount;\r\n        uint liquidityAvailable = sellOrders[0].amount;\r\n \r\n        uint runningPriceOfOrder = sellOrders[0].price * liquidityAvailable;//price of purchasing top order\r\n        uint countOrdersUntilFilled = 1;\r\n\r\n        while(liquidityAvailable < amountNeedingFilled){\r\n            if(countOrdersUntilFilled == sellOrders.length){revert(\"Not enough liquidity to complete trade\");}\r\n            liquidityAvailable += sellOrders[countOrdersUntilFilled].amount;\r\n            sellOrders[countOrdersUntilFilled].amountSpokenFor = sellOrders[countOrdersUntilFilled].amount;\r\n            runningPriceOfOrder += sellOrders[countOrdersUntilFilled].amount.mul(sellOrders[countOrdersUntilFilled].price);\r\n            if(liquidityAvailable + sellOrders[countOrdersUntilFilled].amount >= amountNeedingFilled){\r\n                uint remainder = amountNeedingFilled - liquidityAvailable;\r\n                sellOrders[countOrdersUntilFilled].amountSpokenFor = remainder;\r\n                require(tradersEthBalance >= runningPriceOfOrder + (remainder * sellOrders[countOrdersUntilFilled].price), \"You don't have enough ETH\");\r\n                return true;\r\n            }\r\n            countOrdersUntilFilled ++;\r\n        }\r\n        revert();\r\n    }\r\n    function sortAndExecute(string memory ticker, Side side) internal returns(bool){\r\n        Order[] storage bookToSort = orderBook[ticker][uint(side)];\r\n        //Order[] memory bookToSort = getOrderBook(ticker, side);\r\n        uint i = bookToSort.length > 0 ? bookToSort.length -1 : 0;\r\n\r\n        if(side == Side.BUY){\r\n            if(bookToSort[i].isMarketOrder == 0){//this is a MARKET ORDER\r\n                //take what is needed off opposing orderbook's top orders, and then \r\n                //remove the filled market order.  No more need to sort further\r\n                uint orderBookLength = bookToSort.length;\r\n                executeNewMarketBuyOrder(ticker, orderBookLength);\r\n                bookToSort.pop();\r\n                \r\n            }\r\n            //if isMarketOrder?\r\n            //at this point any order to be filled will be at the end of the array\r\n            //if the order was a limit order, the applicable filling orders will have a \r\n            //specified ammount of spokenFor component.  Fill the order, and remove\r\n            //the now depleted orders.  If a remainder in the limit orders filling a market order\r\n            //then edit the amount field of the remaining order's remaining amount\r\n                while(i > 0){\r\n                if(bookToSort[i - 1].price > bookToSort[i].price){break;}\r\n                Order memory orderToSort = bookToSort[i - 1];\r\n                bookToSort[i -1] = bookToSort[i];\r\n                bookToSort[i] = orderToSort;\r\n                i--;\r\n            }\r\n        }\r\n        if(side == Side.SELL){\r\n             while(i > 0){\r\n                if(bookToSort[i - 1].price < bookToSort[i].price){break;}\r\n                Order memory orderToSort = bookToSort[i - 1];\r\n                bookToSort[i -1] = bookToSort[i];\r\n                bookToSort[i] = orderToSort;\r\n                i--;\r\n            }\r\n        }\r\n        return true;\r\n    }\r\n    function executeNewMarketBuyOrder(string memory ticker, uint buyOrderBookLength) internal{\r\n        Order[] storage sellOrders = orderBook[ticker][1];\r\n        Order memory marketOrderBeingFilled = getOrderBook(ticker, Side.BUY)[buyOrderBookLength - 1];\r\n        uint amountToExchange = marketOrderBeingFilled.amount;\r\n        uint isPartialFill;\r\n        uint TESTING_thisAmountExchanged = 0;\r\n        Order memory thisSellOrder = orderBook[ticker][1][0];\r\n        while(amountToExchange > 0){\r\n            //Order memory thisSellOrder = orderBook[ticker][1][0];\r\n            if(thisSellOrder.amount == thisSellOrder.amountSpokenFor){\r\n                isPartialFill = 0;\r\n                TESTING_thisAmountExchanged = thisSellOrder.amountSpokenFor;\r\n                transferTokenInDex(thisSellOrder, marketOrderBeingFilled, isPartialFill);\r\n                removeOrderFromBook(thisSellOrder);\r\n                amountToExchange -= TESTING_thisAmountExchanged;\r\n            }\r\n            else{\r\n                isPartialFill = thisSellOrder.amountSpokenFor;\r\n                transferTokenInDex(thisSellOrder, marketOrderBeingFilled, isPartialFill);\r\n                thisSellOrder.amount = thisSellOrder.amount.sub(isPartialFill);\r\n                removeOrderFromBook(marketOrderBeingFilled);\r\n                amountToExchange -= isPartialFill;\r\n            }\r\n        }\r\n    }\r\n    function transferTokenInDex(Order memory tokenSellersOrder, Order memory tokenBuyersOrder, uint isPartialFill) internal{\r\n        uint ethTransferAmount = isPartialFill != 0 ? isPartialFill*tokenSellersOrder.price : tokenSellersOrder.amount*tokenSellersOrder.price;\r\n        uint tokenTransferAmount = isPartialFill != 0 ? isPartialFill: tokenSellersOrder.amount;\r\n        require(balances[tokenSellersOrder.trader][tokenSellersOrder.ticker] >= tokenSellersOrder.amount, \"You don't have the funds to make this transfer\");\r\n        require(balances[tokenBuyersOrder.trader][\"ETH\"] >= ethTransferAmount, \"you don't have enough ETH for this trade\");\r\n        \r\n        balances[tokenSellersOrder.trader][tokenSellersOrder.ticker] = balances[tokenSellersOrder.trader][tokenSellersOrder.ticker].sub(tokenTransferAmount);\r\n        balances[tokenBuyersOrder.trader][tokenBuyersOrder.ticker] = balances[tokenBuyersOrder.trader][tokenBuyersOrder.ticker].add(tokenTransferAmount);\r\n        balances[tokenSellersOrder.trader][\"ETH\"] = balances[tokenSellersOrder.trader][\"ETH\"].add(ethTransferAmount);\r\n        balances[tokenBuyersOrder.trader][\"ETH\"] = balances[tokenBuyersOrder.trader][\"ETH\"].sub(ethTransferAmount);\r\n    }\r\n    function removeOrderFromBook(Order memory orderToRemove) internal returns(bool){\r\n        Order[] storage activeOrderBook = orderBook[orderToRemove.ticker][uint(orderToRemove.side)];\r\n        if(orderToRemove.id == activeOrderBook[activeOrderBook.length - 1].id){//if order is at the end of the book, just pop \r\n            activeOrderBook.pop();\r\n            return true;\r\n        }\r\n        else{\r\n            for(uint i = 0; i < activeOrderBook.length; i++){\r\n                activeOrderBook[i] = activeOrderBook[i+1];\r\n            }\r\n            activeOrderBook.pop();\r\n            return true;\r\n        }\r\n    }\r\n    function returnBalance(address accountAddy, string memory ticker) public view returns(uint){\r\n        return balances[accountAddy][ticker];\r\n    }\r\n}  ",
  "sourcePath": "C:/Users/davem/Coding/IvanAcademy/DEX/contracts/dex.sol",
  "compiler": {
    "name": "solc",
    "version": "0.8.5+commit.a4f2e591.Emscripten.clang"
  },
  "schemaVersion": "3.4.1",
  "updatedAt": "2022-02-05T21:52:01.642Z",
  "networkType": "ethereum",
  "devdoc": {
    "kind": "dev",
    "methods": {
      "owner()": {
        "details": "Returns the address of the current owner."
      },
      "renounceOwnership()": {
        "details": "Leaves the contract without owner. It will not be possible to call `onlyOwner` functions anymore. Can only be called by the current owner. NOTE: Renouncing ownership will leave the contract without an owner, thereby removing any functionality that is only available to the owner."
      },
      "transferOwnership(address)": {
        "details": "Transfers ownership of the contract to a new account (`newOwner`). Can only be called by the current owner."
      }
    },
    "version": 1
  },
  "userdoc": {
    "kind": "user",
    "methods": {},
    "version": 1
  }
}