{
  "contractName": "Wallet",
  "abi": [
    {
      "anonymous": false,
      "inputs": [
        {
          "indexed": true,
          "internalType": "address",
          "name": "previousOwner",
          "type": "address"
        },
        {
          "indexed": true,
          "internalType": "address",
          "name": "newOwner",
          "type": "address"
        }
      ],
      "name": "OwnershipTransferred",
      "type": "event"
    },
    {
      "anonymous": false,
      "inputs": [
        {
          "indexed": false,
          "internalType": "address",
          "name": "toAccount",
          "type": "address"
        },
        {
          "indexed": false,
          "internalType": "string",
          "name": "ticker",
          "type": "string"
        },
        {
          "indexed": false,
          "internalType": "uint256",
          "name": "amount",
          "type": "uint256"
        }
      ],
      "name": "deposit_successful",
      "type": "event"
    },
    {
      "inputs": [
        {
          "internalType": "address",
          "name": "",
          "type": "address"
        },
        {
          "internalType": "string",
          "name": "",
          "type": "string"
        }
      ],
      "name": "balances",
      "outputs": [
        {
          "internalType": "uint256",
          "name": "",
          "type": "uint256"
        }
      ],
      "stateMutability": "view",
      "type": "function"
    },
    {
      "inputs": [],
      "name": "owner",
      "outputs": [
        {
          "internalType": "address",
          "name": "",
          "type": "address"
        }
      ],
      "stateMutability": "view",
      "type": "function"
    },
    {
      "inputs": [],
      "name": "renounceOwnership",
      "outputs": [],
      "stateMutability": "nonpayable",
      "type": "function"
    },
    {
      "inputs": [
        {
          "internalType": "uint256",
          "name": "",
          "type": "uint256"
        }
      ],
      "name": "tokenList",
      "outputs": [
        {
          "internalType": "string",
          "name": "",
          "type": "string"
        }
      ],
      "stateMutability": "view",
      "type": "function"
    },
    {
      "inputs": [
        {
          "internalType": "string",
          "name": "",
          "type": "string"
        }
      ],
      "name": "tokenMapping",
      "outputs": [
        {
          "internalType": "string",
          "name": "ticker",
          "type": "string"
        },
        {
          "internalType": "address",
          "name": "tokenAddress",
          "type": "address"
        }
      ],
      "stateMutability": "view",
      "type": "function"
    },
    {
      "inputs": [
        {
          "internalType": "address",
          "name": "newOwner",
          "type": "address"
        }
      ],
      "name": "transferOwnership",
      "outputs": [],
      "stateMutability": "nonpayable",
      "type": "function"
    },
    {
      "inputs": [
        {
          "internalType": "string",
          "name": "ticker",
          "type": "string"
        },
        {
          "internalType": "address",
          "name": "tokenAddress",
          "type": "address"
        }
      ],
      "name": "addToken",
      "outputs": [],
      "stateMutability": "nonpayable",
      "type": "function"
    },
    {
      "inputs": [
        {
          "internalType": "uint256",
          "name": "amount",
          "type": "uint256"
        },
        {
          "internalType": "string",
          "name": "ticker",
          "type": "string"
        }
      ],
      "name": "deposit",
      "outputs": [],
      "stateMutability": "nonpayable",
      "type": "function"
    },
    {
      "inputs": [
        {
          "internalType": "uint256",
          "name": "amount",
          "type": "uint256"
        },
        {
          "internalType": "string",
          "name": "ticker",
          "type": "string"
        }
      ],
      "name": "withdraw",
      "outputs": [],
      "stateMutability": "nonpayable",
      "type": "function"
    }
  ],
  "bytecode": "0x608060405234801561001057600080fd5b5060006100216100c460201b60201c565b9050806000806101000a81548173ffffffffffffffffffffffffffffffffffffffff021916908373ffffffffffffffffffffffffffffffffffffffff1602179055508073ffffffffffffffffffffffffffffffffffffffff16600073ffffffffffffffffffffffffffffffffffffffff167f8be0079c531659141344cd1fd0a4f28419497f9722a3daafe3b4186f6b6457e060405160405180910390a3506100cc565b600033905090565b6116e8806100db6000396000f3fe608060405234801561001057600080fd5b50600436106100935760003560e01c8063b0b22c2c11610066578063b0b22c2c14610120578063dc048cf21461013c578063e88ad95314610158578063f1215d2514610189578063f2fde38b146101a557610093565b806305d01f5014610098578063715018a6146100c85780638da5cb5b146100d25780639ead7222146100f0575b600080fd5b6100b260048036038101906100ad9190610eef565b6101c1565b6040516100bf91906112f6565b60405180910390f35b6100d06101fc565b005b6100da610336565b6040516100e791906111a9565b60405180910390f35b61010a60048036038101906101059190611001565b61035f565b6040516101179190611224565b60405180910390f35b61013a60048036038101906101359190610fad565b61040b565b005b6101566004803603810190610151919061102a565b610577565b005b610172600480360381019061016d9190610f6c565b610868565b604051610180929190611246565b60405180910390f35b6101a3600480360381019061019e919061102a565b61094a565b005b6101bf60048036038101906101ba9190610ec6565b610b9f565b005b600360205281600052604060002081805160208101820180518482526020830160208501208183528095505050505050600091509150505481565b610204610d48565b73ffffffffffffffffffffffffffffffffffffffff16610222610336565b73ffffffffffffffffffffffffffffffffffffffff1614610278576040517f08c379a000000000000000000000000000000000000000000000000000000000815260040161026f906112b6565b60405180910390fd5b600073ffffffffffffffffffffffffffffffffffffffff1660008054906101000a900473ffffffffffffffffffffffffffffffffffffffff1673ffffffffffffffffffffffffffffffffffffffff167f8be0079c531659141344cd1fd0a4f28419497f9722a3daafe3b4186f6b6457e060405160405180910390a360008060006101000a81548173ffffffffffffffffffffffffffffffffffffffff021916908373ffffffffffffffffffffffffffffffffffffffff160217905550565b60008060009054906101000a900473ffffffffffffffffffffffffffffffffffffffff16905090565b6002818154811061036f57600080fd5b90600052602060002001600091509050805461038a906114a2565b80601f01602080910402602001604051908101604052809291908181526020018280546103b6906114a2565b80156104035780601f106103d857610100808354040283529160200191610403565b820191906000526020600020905b8154815290600101906020018083116103e657829003601f168201915b505050505081565b610413610d48565b73ffffffffffffffffffffffffffffffffffffffff16610431610336565b73ffffffffffffffffffffffffffffffffffffffff1614610487576040517f08c379a000000000000000000000000000000000000000000000000000000000815260040161047e906112b6565b60405180910390fd5b60405180604001604052808381526020018273ffffffffffffffffffffffffffffffffffffffff168152506001836040516104c29190611192565b908152602001604051809103902060008201518160000190805190602001906104ec929190610d7c565b5060208201518160010160006101000a81548173ffffffffffffffffffffffffffffffffffffffff021916908373ffffffffffffffffffffffffffffffffffffffff160217905550905050600282908060018154018082558091505060019003906000526020600020016000909190919091509080519060200190610572929190610d7c565b505050565b80600073ffffffffffffffffffffffffffffffffffffffff166001826040516105a09190611192565b908152602001604051809103902060010160009054906101000a900473ffffffffffffffffffffffffffffffffffffffff1673ffffffffffffffffffffffffffffffffffffffff161415610629576040517f08c379a0000000000000000000000000000000000000000000000000000000008152600401610620906112d6565b60405180910390fd5b82600360003373ffffffffffffffffffffffffffffffffffffffff1673ffffffffffffffffffffffffffffffffffffffff168152602001908152602001600020836040516106779190611192565b90815260200160405180910390205410156106c7576040517f08c379a00000000000000000000000000000000000000000000000000000000081526004016106be90611276565b60405180910390fd5b61073583600360003373ffffffffffffffffffffffffffffffffffffffff1673ffffffffffffffffffffffffffffffffffffffff168152602001908152602001600020846040516107189190611192565b908152602001604051809103902054610d5090919063ffffffff16565b600360003373ffffffffffffffffffffffffffffffffffffffff1673ffffffffffffffffffffffffffffffffffffffff168152602001908152602001600020836040516107829190611192565b9081526020016040518091039020819055506001826040516107a49190611192565b908152602001604051809103902060010160009054906101000a900473ffffffffffffffffffffffffffffffffffffffff1673ffffffffffffffffffffffffffffffffffffffff1663a9059cbb33856040518363ffffffff1660e01b81526004016108109291906111fb565b602060405180830381600087803b15801561082a57600080fd5b505af115801561083e573d6000803e3d6000fd5b505050506040513d601f19601f820116820180604052508101906108629190610f43565b50505050565b6001818051602081018201805184825260208301602085012081835280955050505050506000915090508060000180546108a1906114a2565b80601f01602080910402602001604051908101604052809291908181526020018280546108cd906114a2565b801561091a5780601f106108ef5761010080835404028352916020019161091a565b820191906000526020600020905b8154815290600101906020018083116108fd57829003601f168201915b5050505050908060010160009054906101000a900473ffffffffffffffffffffffffffffffffffffffff16905082565b80600073ffffffffffffffffffffffffffffffffffffffff166001826040516109739190611192565b908152602001604051809103902060010160009054906101000a900473ffffffffffffffffffffffffffffffffffffffff1673ffffffffffffffffffffffffffffffffffffffff1614156109fc576040517f08c379a00000000000000000000000000000000000000000000000000000000081526004016109f3906112d6565b60405180910390fd5b600182604051610a0c9190611192565b908152602001604051809103902060010160009054906101000a900473ffffffffffffffffffffffffffffffffffffffff1673ffffffffffffffffffffffffffffffffffffffff166323b872dd3330866040518463ffffffff1660e01b8152600401610a7a939291906111c4565b602060405180830381600087803b158015610a9457600080fd5b505af1158015610aa8573d6000803e3d6000fd5b505050506040513d601f19601f82011682018060405250810190610acc9190610f43565b50610b3b83600360003373ffffffffffffffffffffffffffffffffffffffff1673ffffffffffffffffffffffffffffffffffffffff16815260200190815260200160002084604051610b1e9190611192565b908152602001604051809103902054610d6690919063ffffffff16565b600360003373ffffffffffffffffffffffffffffffffffffffff1673ffffffffffffffffffffffffffffffffffffffff16815260200190815260200160002083604051610b889190611192565b908152602001604051809103902081905550505050565b610ba7610d48565b73ffffffffffffffffffffffffffffffffffffffff16610bc5610336565b73ffffffffffffffffffffffffffffffffffffffff1614610c1b576040517f08c379a0000000000000000000000000000000000000000000000000000000008152600401610c12906112b6565b60405180910390fd5b600073ffffffffffffffffffffffffffffffffffffffff168173ffffffffffffffffffffffffffffffffffffffff161415610c8b576040517f08c379a0000000000000000000000000000000000000000000000000000000008152600401610c8290611296565b60405180910390fd5b8073ffffffffffffffffffffffffffffffffffffffff1660008054906101000a900473ffffffffffffffffffffffffffffffffffffffff1673ffffffffffffffffffffffffffffffffffffffff167f8be0079c531659141344cd1fd0a4f28419497f9722a3daafe3b4186f6b6457e060405160405180910390a3806000806101000a81548173ffffffffffffffffffffffffffffffffffffffff021916908373ffffffffffffffffffffffffffffffffffffffff16021790555050565b600033905090565b60008183610d5e91906113e4565b905092915050565b60008183610d74919061138e565b905092915050565b828054610d88906114a2565b90600052602060002090601f016020900481019282610daa5760008555610df1565b82601f10610dc357805160ff1916838001178555610df1565b82800160010185558215610df1579182015b82811115610df0578251825591602001919060010190610dd5565b5b509050610dfe9190610e02565b5090565b5b80821115610e1b576000816000905550600101610e03565b5090565b6000610e32610e2d84611336565b611311565b905082815260208101848484011115610e4a57600080fd5b610e55848285611460565b509392505050565b600081359050610e6c8161166d565b92915050565b600081519050610e8181611684565b92915050565b600082601f830112610e9857600080fd5b8135610ea8848260208601610e1f565b91505092915050565b600081359050610ec08161169b565b92915050565b600060208284031215610ed857600080fd5b6000610ee684828501610e5d565b91505092915050565b60008060408385031215610f0257600080fd5b6000610f1085828601610e5d565b925050602083013567ffffffffffffffff811115610f2d57600080fd5b610f3985828601610e87565b9150509250929050565b600060208284031215610f5557600080fd5b6000610f6384828501610e72565b91505092915050565b600060208284031215610f7e57600080fd5b600082013567ffffffffffffffff811115610f9857600080fd5b610fa484828501610e87565b91505092915050565b60008060408385031215610fc057600080fd5b600083013567ffffffffffffffff811115610fda57600080fd5b610fe685828601610e87565b9250506020610ff785828601610e5d565b9150509250929050565b60006020828403121561101357600080fd5b600061102184828501610eb1565b91505092915050565b6000806040838503121561103d57600080fd5b600061104b85828601610eb1565b925050602083013567ffffffffffffffff81111561106857600080fd5b61107485828601610e87565b9150509250929050565b61108781611418565b82525050565b600061109882611367565b6110a28185611372565b93506110b281856020860161146f565b6110bb81611592565b840191505092915050565b60006110d182611367565b6110db8185611383565b93506110eb81856020860161146f565b80840191505092915050565b6000611104601683611372565b915061110f826115a3565b602082019050919050565b6000611127602683611372565b9150611132826115cc565b604082019050919050565b600061114a602083611372565b91506111558261161b565b602082019050919050565b600061116d601483611372565b915061117882611644565b602082019050919050565b61118c81611456565b82525050565b600061119e82846110c6565b915081905092915050565b60006020820190506111be600083018461107e565b92915050565b60006060820190506111d9600083018661107e565b6111e6602083018561107e565b6111f36040830184611183565b949350505050565b6000604082019050611210600083018561107e565b61121d6020830184611183565b9392505050565b6000602082019050818103600083015261123e818461108d565b905092915050565b60006040820190508181036000830152611260818561108d565b905061126f602083018461107e565b9392505050565b6000602082019050818103600083015261128f816110f7565b9050919050565b600060208201905081810360008301526112af8161111a565b9050919050565b600060208201905081810360008301526112cf8161113d565b9050919050565b600060208201905081810360008301526112ef81611160565b9050919050565b600060208201905061130b6000830184611183565b92915050565b600061131b61132c565b905061132782826114d4565b919050565b6000604051905090565b600067ffffffffffffffff82111561135157611350611563565b5b61135a82611592565b9050602081019050919050565b600081519050919050565b600082825260208201905092915050565b600081905092915050565b600061139982611456565b91506113a483611456565b9250827fffffffffffffffffffffffffffffffffffffffffffffffffffffffffffffffff038211156113d9576113d8611505565b5b828201905092915050565b60006113ef82611456565b91506113fa83611456565b92508282101561140d5761140c611505565b5b828203905092915050565b600061142382611436565b9050919050565b60008115159050919050565b600073ffffffffffffffffffffffffffffffffffffffff82169050919050565b6000819050919050565b82818337600083830152505050565b60005b8381101561148d578082015181840152602081019050611472565b8381111561149c576000848401525b50505050565b600060028204905060018216806114ba57607f821691505b602082108114156114ce576114cd611534565b5b50919050565b6114dd82611592565b810181811067ffffffffffffffff821117156114fc576114fb611563565b5b80604052505050565b7f4e487b7100000000000000000000000000000000000000000000000000000000600052601160045260246000fd5b7f4e487b7100000000000000000000000000000000000000000000000000000000600052602260045260246000fd5b7f4e487b7100000000000000000000000000000000000000000000000000000000600052604160045260246000fd5b6000601f19601f8301169050919050565b7f62616c616e6365206e6f742073756666696369656e7400000000000000000000600082015250565b7f4f776e61626c653a206e6577206f776e657220697320746865207a65726f206160008201527f6464726573730000000000000000000000000000000000000000000000000000602082015250565b7f4f776e61626c653a2063616c6c6572206973206e6f7420746865206f776e6572600082015250565b7f746f6b656e20646f6573206e6f74206578697374000000000000000000000000600082015250565b61167681611418565b811461168157600080fd5b50565b61168d8161142a565b811461169857600080fd5b50565b6116a481611456565b81146116af57600080fd5b5056fea2646970667358221220499850f68271af67caa9be5bf5d9125f3c15d0d49b613a3b9757008b52212d9c64736f6c63430008040033",
  "immutableReferences": {},
  "source": "pragma solidity ^0.8.0;\r\n\r\nimport \"../node_modules/@openzeppelin/contracts/token/erc20/IERC20.sol\";\r\nimport \"../node_modules/@openzeppelin/contracts/utils/math/SafeMath.sol\";\r\nimport \"../node_modules/@openzeppelin/contracts/access/Ownable.sol\";\r\ncontract Wallet is Ownable{\r\n\r\n    using SafeMath for uint256;\r\n\r\n    \r\n    //constructor to ensure ETH has a native place on the mapping for my DEX   \r\n  //constructor (){ \r\n  //    tokenMapping[\"ETH\"] = Token(\"ETH\", address(this));\r\n  //}\r\n\r\n    struct Token{\r\n            string ticker;\r\n            address tokenAddress;\r\n    }\r\n\r\n    modifier tokenExists(string memory ticker){\r\n        require(tokenMapping[ticker].tokenAddress != address(0), \"token does not exist\");\r\n        _;\r\n    }\r\n\r\n    mapping(string => Token) public tokenMapping;\r\n    \r\n    string[] public tokenList;\r\n\r\n    mapping(address => mapping(string => uint256)) public balances;\r\n\r\n    event deposit_successful(address toAccount, string ticker, uint amount);\r\n\r\n    function addToken(string memory ticker, address tokenAddress) onlyOwner external{\r\n        tokenMapping[ticker] = Token(ticker, tokenAddress);\r\n        tokenList.push(ticker);\r\n    }\r\n    \r\n    function deposit(uint amount, string memory ticker) tokenExists(ticker) external{\r\n        IERC20(tokenMapping[ticker].tokenAddress).transferFrom(msg.sender, address(this), amount);\r\n        balances[msg.sender][ticker] = balances[msg.sender][ticker].add(amount);\r\n    }\r\n    \r\n    function withdraw(uint amount, string memory ticker) tokenExists(ticker) external{\r\n        require(balances[msg.sender][ticker] >= amount, \"balance not sufficient\");\r\n        balances[msg.sender][ticker] = balances[msg.sender][ticker].sub(amount);\r\n        IERC20(tokenMapping[ticker].tokenAddress).transfer(msg.sender, amount);\r\n        //calls the .transfer() function of the contract at the address \r\n        //given by TokenMapping...\r\n    }\r\n\r\n}\r\n\r\n\r\n",
  "sourcePath": "C:/Users/davem/Coding/IvanAcademy/DEX/contracts/wallet.sol",
  "compiler": {
    "name": "solc",
    "version": "0.8.4+commit.c7e474f2.Emscripten.clang"
  },
  "schemaVersion": "3.4.0",
  "updatedAt": "2021-06-03T20:57:06.195Z",
  "devdoc": {
    "kind": "dev",
    "methods": {
      "owner()": {
        "details": "Returns the address of the current owner."
      },
      "renounceOwnership()": {
        "details": "Leaves the contract without owner. It will not be possible to call `onlyOwner` functions anymore. Can only be called by the current owner. NOTE: Renouncing ownership will leave the contract without an owner, thereby removing any functionality that is only available to the owner."
      },
      "transferOwnership(address)": {
        "details": "Transfers ownership of the contract to a new account (`newOwner`). Can only be called by the current owner."
      }
    },
    "version": 1
  },
  "userdoc": {
    "kind": "user",
    "methods": {},
    "version": 1
  }
}